{
	"data": {
		"bytecode": {
			"linkReferences": {},
			"object": "608060405234801561001057600080fd5b50611834806100206000396000f3fe6080604052600436106100f35760003560e01c8063597e1fb51161008a578063a678bb9e11610059578063a678bb9e146102f4578063ade421781461031f578063bdd4d18d14610329578063cf9d4afa14610354576100f3565b8063597e1fb51461024857806372f0f0a5146102735780637fe6eee01461029e5780639c3f4185146102c9576100f3565b80632c4e722e116100c65780632c4e722e1461019e5780632ddbd13a146101c957806344080f42146101f4578063522e11771461021d576100f3565b80630645544a146100f85780630cb61f6c1461012157806315b75bea1461014c5780632587eb4e14610175575b600080fd5b34801561010457600080fd5b5061011f600480360381019061011a9190611040565b61037d565b005b34801561012d57600080fd5b50610136610387565b60405161014391906111cb565b60405180910390f35b34801561015857600080fd5b50610173600480360381019061016e9190610f3f565b6103ad565b005b34801561018157600080fd5b5061019c60048036038101906101979190611013565b6103f1565b005b3480156101aa57600080fd5b506101b36103fb565b6040516101c0919061129e565b60405180910390f35b3480156101d557600080fd5b506101de610401565b6040516101eb91906112d9565b60405180910390f35b34801561020057600080fd5b5061021b60048036038101906102169190610f99565b610407565b005b34801561022957600080fd5b5061023261047b565b60405161023f9190611283565b60405180910390f35b34801561025457600080fd5b5061025d61048e565b60405161026a9190611283565b60405180910390f35b34801561027f57600080fd5b506102886104a1565b60405161029591906111cb565b60405180910390f35b3480156102aa57600080fd5b506102b36104c7565b6040516102c091906112d9565b60405180910390f35b3480156102d557600080fd5b506102de6104cd565b6040516102eb91906112d9565b60405180910390f35b34801561030057600080fd5b506103096104d3565b60405161031691906112d9565b60405180910390f35b6103276104d9565b005b34801561033557600080fd5b5061033e610c32565b60405161034b9190611261565b60405180910390f35b34801561036057600080fd5b5061037b60048036038101906103769190610f3f565b610d09565b005b8060048190555050565b600960009054906101000a900473ffffffffffffffffffffffffffffffffffffffff1681565b80600960006101000a81548173ffffffffffffffffffffffffffffffffffffffff021916908373ffffffffffffffffffffffffffffffffffffffff16021790555050565b8060038190555050565b60035481565b60015481565b60005b8282905081101561047657600083838381811061042a576104296115fc565b5b905060400201908060018154018082558091505060019003906000526020600020016000909190919091508181610461919061175a565b5050808061046e90611555565b91505061040a565b505050565b600960149054906101000a900460ff1681565b600660009054906101000a900460ff1681565b600260009054906101000a900473ffffffffffffffffffffffffffffffffffffffff1681565b60045481565b60075481565b60055481565b6000808054905011610520576040517f08c379a0000000000000000000000000000000000000000000000000000000008152600401610517906112b9565b60405180910390fd5b600960149054906101000a900460ff161561053a57610c30565b60003073ffffffffffffffffffffffffffffffffffffffff166372f0f0a56040518163ffffffff1660e01b815260040160206040518083038186803b15801561058257600080fd5b505afa158015610596573d6000803e3d6000fd5b505050506040513d601f19601f820116820180604052508101906105ba9190610f6c565b905060008173ffffffffffffffffffffffffffffffffffffffff166370a08231306040518263ffffffff1660e01b81526004016105f791906111cb565b60206040518083038186803b15801561060f57600080fd5b505afa158015610623573d6000803e3d6000fd5b505050506040513d601f19601f82011682018060405250810190610647919061106d565b9050806007600082825461065b919061133e565b92505081905550600754600454116107dc578173ffffffffffffffffffffffffffffffffffffffff1663a9059cbb600960009054906101000a900473ffffffffffffffffffffffffffffffffffffffff166004546007546106bc919061141f565b6040518363ffffffff1660e01b81526004016106d992919061120f565b602060405180830381600087803b1580156106f357600080fd5b505af1158015610707573d6000803e3d6000fd5b505050506040513d601f19601f8201168201806040525081019061072b9190610fe6565b506004546007819055506001600960146101000a81548160ff0219169083151502179055508173ffffffffffffffffffffffffffffffffffffffff166370a08231306040518263ffffffff1660e01b815260040161078991906111cb565b60206040518083038186803b1580156107a157600080fd5b505afa1580156107b5573d6000803e3d6000fd5b505050506040513d601f19601f820116820180604052508101906107d9919061106d565b90505b60005b600080549050811015610b97576000808281548110610801576108006115fc565b5b906000526020600020016040518060400160405290816000820160009054906101000a900473ffffffffffffffffffffffffffffffffffffffff1673ffffffffffffffffffffffffffffffffffffffff1673ffffffffffffffffffffffffffffffffffffffff1681526020016000820160149054906101000a900463ffffffff1663ffffffff1663ffffffff168152505090508373ffffffffffffffffffffffffffffffffffffffff1663dd62ed3e33306040518363ffffffff1660e01b81526004016108cf9291906111e6565b60206040518083038186803b1580156108e757600080fd5b505afa1580156108fb573d6000803e3d6000fd5b505050506040513d601f19601f8201168201806040525081019061091f919061106d565b508373ffffffffffffffffffffffffffffffffffffffff1663dd62ed3e30336040518363ffffffff1660e01b815260040161095b9291906111e6565b60206040518083038186803b15801561097357600080fd5b505afa158015610987573d6000803e3d6000fd5b505050506040513d601f19601f820116820180604052508101906109ab919061106d565b508373ffffffffffffffffffffffffffffffffffffffff1663395093513383602001516040518363ffffffff1660e01b81526004016109eb929190611238565b602060405180830381600087803b158015610a0557600080fd5b505af1158015610a19573d6000803e3d6000fd5b505050506040513d601f19601f82011682018060405250810190610a3d9190610fe6565b508373ffffffffffffffffffffffffffffffffffffffff1663395093513083602001516040518363ffffffff1660e01b8152600401610a7d929190611238565b602060405180830381600087803b158015610a9757600080fd5b505af1158015610aab573d6000803e3d6000fd5b505050506040513d601f19601f82011682018060405250810190610acf9190610fe6565b508373ffffffffffffffffffffffffffffffffffffffff1663a9059cbb82600001516064846020015163ffffffff1687610b0991906113c5565b610b139190611394565b6040518363ffffffff1660e01b8152600401610b3092919061120f565b602060405180830381600087803b158015610b4a57600080fd5b505af1158015610b5e573d6000803e3d6000fd5b505050506040513d601f19601f82011682018060405250810190610b829190610fe6565b50508080610b8f90611555565b9150506107df565b506007546004541415610c2d576000600960009054906101000a900473ffffffffffffffffffffffffffffffffffffffff1690508073ffffffffffffffffffffffffffffffffffffffff1663ade421786040518163ffffffff1660e01b8152600401600060405180830381600087803b158015610c1357600080fd5b505af1158015610c27573d6000803e3d6000fd5b50505050505b50505b565b60606000805480602002602001604051908101604052809291908181526020016000905b82821015610d00578382906000526020600020016040518060400160405290816000820160009054906101000a900473ffffffffffffffffffffffffffffffffffffffff1673ffffffffffffffffffffffffffffffffffffffff1673ffffffffffffffffffffffffffffffffffffffff1681526020016000820160149054906101000a900463ffffffff1663ffffffff1663ffffffff168152505081526020019060010190610c56565b50505050905090565b80600260006101000a81548173ffffffffffffffffffffffffffffffffffffffff021916908373ffffffffffffffffffffffffffffffffffffffff16021790555060008190508073ffffffffffffffffffffffffffffffffffffffff1663dd62ed3e33306040518363ffffffff1660e01b8152600401610d8a9291906111e6565b60206040518083038186803b158015610da257600080fd5b505afa158015610db6573d6000803e3d6000fd5b505050506040513d601f19601f82011682018060405250810190610dda919061106d565b508073ffffffffffffffffffffffffffffffffffffffff1663dd62ed3e30336040518363ffffffff1660e01b8152600401610e169291906111e6565b60206040518083038186803b158015610e2e57600080fd5b505afa158015610e42573d6000803e3d6000fd5b505050506040513d601f19601f82011682018060405250810190610e66919061106d565b505050565b600081359050610e7a8161178b565b92915050565b600081519050610e8f8161178b565b92915050565b60008083601f840112610eab57610eaa611670565b5b8235905067ffffffffffffffff811115610ec857610ec761166b565b5b602083019150836040820283011115610ee457610ee3611675565b5b9250929050565b600081519050610efa816117a2565b92915050565b600081359050610f0f816117b9565b92915050565b600081359050610f24816117d0565b92915050565b600081519050610f39816117d0565b92915050565b600060208284031215610f5557610f5461167f565b5b6000610f6384828501610e6b565b91505092915050565b600060208284031215610f8257610f8161167f565b5b6000610f9084828501610e80565b91505092915050565b60008060208385031215610fb057610faf61167f565b5b600083013567ffffffffffffffff811115610fce57610fcd61167a565b5b610fda85828601610e95565b92509250509250929050565b600060208284031215610ffc57610ffb61167f565b5b600061100a84828501610eeb565b91505092915050565b6000602082840312156110295761102861167f565b5b600061103784828501610f00565b91505092915050565b6000602082840312156110565761105561167f565b5b600061106484828501610f15565b91505092915050565b6000602082840312156110835761108261167f565b5b600061109184828501610f2a565b91505092915050565b60006110a6838361116f565b60408301905092915050565b6110bb81611453565b82525050565b6110ca81611453565b82525050565b60006110db82611304565b6110e5818561131c565b93506110f0836112f4565b8060005b83811015611121578151611108888261109a565b97506111138361130f565b9250506001810190506110f4565b5085935050505092915050565b61113781611465565b82525050565b61114681611471565b82525050565b600061115960018361132d565b91506111648261169e565b602082019050919050565b60408201600082015161118560008501826110b2565b50602082015161119860208501826111bc565b50505050565b6111a78161149b565b82525050565b6111b6816114eb565b82525050565b6111c5816114a5565b82525050565b60006020820190506111e060008301846110c1565b92915050565b60006040820190506111fb60008301856110c1565b61120860208301846110c1565b9392505050565b600060408201905061122460008301856110c1565b611231602083018461119e565b9392505050565b600060408201905061124d60008301856110c1565b61125a60208301846111ad565b9392505050565b6000602082019050818103600083015261127b81846110d0565b905092915050565b6000602082019050611298600083018461112e565b92915050565b60006020820190506112b3600083018461113d565b92915050565b600060208201905081810360008301526112d28161114c565b9050919050565b60006020820190506112ee600083018461119e565b92915050565b6000819050602082019050919050565b600081519050919050565b6000602082019050919050565b600082825260208201905092915050565b600082825260208201905092915050565b60006113498261149b565b91506113548361149b565b9250827fffffffffffffffffffffffffffffffffffffffffffffffffffffffffffffffff038211156113895761138861159e565b5b828201905092915050565b600061139f8261149b565b91506113aa8361149b565b9250826113ba576113b96115cd565b5b828204905092915050565b60006113d08261149b565b91506113db8361149b565b9250817fffffffffffffffffffffffffffffffffffffffffffffffffffffffffffffffff04831182151516156114145761141361159e565b5b828202905092915050565b600061142a8261149b565b91506114358361149b565b9250828210156114485761144761159e565b5b828203905092915050565b600061145e8261147b565b9050919050565b60008115159050919050565b6000819050919050565b600073ffffffffffffffffffffffffffffffffffffffff82169050919050565b6000819050919050565b600063ffffffff82169050919050565b60006114c0826114c7565b9050919050565b60006114d2826114d9565b9050919050565b60006114e48261147b565b9050919050565b60006114f6826114a5565b9050919050565b6000611508826114a5565b9050919050565b6000810160008301806115218161163f565b905061152d8184611737565b50505060008101602083018061154281611655565b905061154e8184611768565b5050505050565b60006115608261149b565b91507fffffffffffffffffffffffffffffffffffffffffffffffffffffffffffffffff8214156115935761159261159e565b5b600182019050919050565b7f4e487b7100000000000000000000000000000000000000000000000000000000600052601160045260246000fd5b7f4e487b7100000000000000000000000000000000000000000000000000000000600052601260045260246000fd5b7f4e487b7100000000000000000000000000000000000000000000000000000000600052603260045260246000fd5b6000819050919050565b6000819050919050565b6000813561164c8161178b565b80915050919050565b60008135611662816117e7565b80915050919050565b600080fd5b600080fd5b600080fd5b600080fd5b600080fd5b60008160001b9050919050565b60008160a01b9050919050565b7f3100000000000000000000000000000000000000000000000000000000000000600082015250565b600073ffffffffffffffffffffffffffffffffffffffff6116e784611684565b9350801983169250808416831791505092915050565b600077ffffffff000000000000000000000000000000000000000061172184611691565b9350801983169250808416831791505092915050565b611740826114b5565b61175361174c8261162b565b83546116c7565b8255505050565b611764828261150f565b5050565b611771826114fd565b61178461177d82611635565b83546116fd565b8255505050565b61179481611453565b811461179f57600080fd5b50565b6117ab81611465565b81146117b657600080fd5b50565b6117c281611471565b81146117cd57600080fd5b50565b6117d98161149b565b81146117e457600080fd5b50565b6117f0816114a5565b81146117fb57600080fd5b5056fea2646970667358221220f040a25cf33036c04d4ed215c5c2d034fc32d5bf75d9043a5608e7454aaa5c7964736f6c63430008070033",
			"opcodes": "PUSH1 0x80 PUSH1 0x40 MSTORE CALLVALUE DUP1 ISZERO PUSH2 0x10 JUMPI PUSH1 0x0 DUP1 REVERT JUMPDEST POP PUSH2 0x1834 DUP1 PUSH2 0x20 PUSH1 0x0 CODECOPY PUSH1 0x0 RETURN INVALID PUSH1 0x80 PUSH1 0x40 MSTORE PUSH1 0x4 CALLDATASIZE LT PUSH2 0xF3 JUMPI PUSH1 0x0 CALLDATALOAD PUSH1 0xE0 SHR DUP1 PUSH4 0x597E1FB5 GT PUSH2 0x8A JUMPI DUP1 PUSH4 0xA678BB9E GT PUSH2 0x59 JUMPI DUP1 PUSH4 0xA678BB9E EQ PUSH2 0x2F4 JUMPI DUP1 PUSH4 0xADE42178 EQ PUSH2 0x31F JUMPI DUP1 PUSH4 0xBDD4D18D EQ PUSH2 0x329 JUMPI DUP1 PUSH4 0xCF9D4AFA EQ PUSH2 0x354 JUMPI PUSH2 0xF3 JUMP JUMPDEST DUP1 PUSH4 0x597E1FB5 EQ PUSH2 0x248 JUMPI DUP1 PUSH4 0x72F0F0A5 EQ PUSH2 0x273 JUMPI DUP1 PUSH4 0x7FE6EEE0 EQ PUSH2 0x29E JUMPI DUP1 PUSH4 0x9C3F4185 EQ PUSH2 0x2C9 JUMPI PUSH2 0xF3 JUMP JUMPDEST DUP1 PUSH4 0x2C4E722E GT PUSH2 0xC6 JUMPI DUP1 PUSH4 0x2C4E722E EQ PUSH2 0x19E JUMPI DUP1 PUSH4 0x2DDBD13A EQ PUSH2 0x1C9 JUMPI DUP1 PUSH4 0x44080F42 EQ PUSH2 0x1F4 JUMPI DUP1 PUSH4 0x522E1177 EQ PUSH2 0x21D JUMPI PUSH2 0xF3 JUMP JUMPDEST DUP1 PUSH4 0x645544A EQ PUSH2 0xF8 JUMPI DUP1 PUSH4 0xCB61F6C EQ PUSH2 0x121 JUMPI DUP1 PUSH4 0x15B75BEA EQ PUSH2 0x14C JUMPI DUP1 PUSH4 0x2587EB4E EQ PUSH2 0x175 JUMPI JUMPDEST PUSH1 0x0 DUP1 REVERT JUMPDEST CALLVALUE DUP1 ISZERO PUSH2 0x104 JUMPI PUSH1 0x0 DUP1 REVERT JUMPDEST POP PUSH2 0x11F PUSH1 0x4 DUP1 CALLDATASIZE SUB DUP2 ADD SWAP1 PUSH2 0x11A SWAP2 SWAP1 PUSH2 0x1040 JUMP JUMPDEST PUSH2 0x37D JUMP JUMPDEST STOP JUMPDEST CALLVALUE DUP1 ISZERO PUSH2 0x12D JUMPI PUSH1 0x0 DUP1 REVERT JUMPDEST POP PUSH2 0x136 PUSH2 0x387 JUMP JUMPDEST PUSH1 0x40 MLOAD PUSH2 0x143 SWAP2 SWAP1 PUSH2 0x11CB JUMP JUMPDEST PUSH1 0x40 MLOAD DUP1 SWAP2 SUB SWAP1 RETURN JUMPDEST CALLVALUE DUP1 ISZERO PUSH2 0x158 JUMPI PUSH1 0x0 DUP1 REVERT JUMPDEST POP PUSH2 0x173 PUSH1 0x4 DUP1 CALLDATASIZE SUB DUP2 ADD SWAP1 PUSH2 0x16E SWAP2 SWAP1 PUSH2 0xF3F JUMP JUMPDEST PUSH2 0x3AD JUMP JUMPDEST STOP JUMPDEST CALLVALUE DUP1 ISZERO PUSH2 0x181 JUMPI PUSH1 0x0 DUP1 REVERT JUMPDEST POP PUSH2 0x19C PUSH1 0x4 DUP1 CALLDATASIZE SUB DUP2 ADD SWAP1 PUSH2 0x197 SWAP2 SWAP1 PUSH2 0x1013 JUMP JUMPDEST PUSH2 0x3F1 JUMP JUMPDEST STOP JUMPDEST CALLVALUE DUP1 ISZERO PUSH2 0x1AA JUMPI PUSH1 0x0 DUP1 REVERT JUMPDEST POP PUSH2 0x1B3 PUSH2 0x3FB JUMP JUMPDEST PUSH1 0x40 MLOAD PUSH2 0x1C0 SWAP2 SWAP1 PUSH2 0x129E JUMP JUMPDEST PUSH1 0x40 MLOAD DUP1 SWAP2 SUB SWAP1 RETURN JUMPDEST CALLVALUE DUP1 ISZERO PUSH2 0x1D5 JUMPI PUSH1 0x0 DUP1 REVERT JUMPDEST POP PUSH2 0x1DE PUSH2 0x401 JUMP JUMPDEST PUSH1 0x40 MLOAD PUSH2 0x1EB SWAP2 SWAP1 PUSH2 0x12D9 JUMP JUMPDEST PUSH1 0x40 MLOAD DUP1 SWAP2 SUB SWAP1 RETURN JUMPDEST CALLVALUE DUP1 ISZERO PUSH2 0x200 JUMPI PUSH1 0x0 DUP1 REVERT JUMPDEST POP PUSH2 0x21B PUSH1 0x4 DUP1 CALLDATASIZE SUB DUP2 ADD SWAP1 PUSH2 0x216 SWAP2 SWAP1 PUSH2 0xF99 JUMP JUMPDEST PUSH2 0x407 JUMP JUMPDEST STOP JUMPDEST CALLVALUE DUP1 ISZERO PUSH2 0x229 JUMPI PUSH1 0x0 DUP1 REVERT JUMPDEST POP PUSH2 0x232 PUSH2 0x47B JUMP JUMPDEST PUSH1 0x40 MLOAD PUSH2 0x23F SWAP2 SWAP1 PUSH2 0x1283 JUMP JUMPDEST PUSH1 0x40 MLOAD DUP1 SWAP2 SUB SWAP1 RETURN JUMPDEST CALLVALUE DUP1 ISZERO PUSH2 0x254 JUMPI PUSH1 0x0 DUP1 REVERT JUMPDEST POP PUSH2 0x25D PUSH2 0x48E JUMP JUMPDEST PUSH1 0x40 MLOAD PUSH2 0x26A SWAP2 SWAP1 PUSH2 0x1283 JUMP JUMPDEST PUSH1 0x40 MLOAD DUP1 SWAP2 SUB SWAP1 RETURN JUMPDEST CALLVALUE DUP1 ISZERO PUSH2 0x27F JUMPI PUSH1 0x0 DUP1 REVERT JUMPDEST POP PUSH2 0x288 PUSH2 0x4A1 JUMP JUMPDEST PUSH1 0x40 MLOAD PUSH2 0x295 SWAP2 SWAP1 PUSH2 0x11CB JUMP JUMPDEST PUSH1 0x40 MLOAD DUP1 SWAP2 SUB SWAP1 RETURN JUMPDEST CALLVALUE DUP1 ISZERO PUSH2 0x2AA JUMPI PUSH1 0x0 DUP1 REVERT JUMPDEST POP PUSH2 0x2B3 PUSH2 0x4C7 JUMP JUMPDEST PUSH1 0x40 MLOAD PUSH2 0x2C0 SWAP2 SWAP1 PUSH2 0x12D9 JUMP JUMPDEST PUSH1 0x40 MLOAD DUP1 SWAP2 SUB SWAP1 RETURN JUMPDEST CALLVALUE DUP1 ISZERO PUSH2 0x2D5 JUMPI PUSH1 0x0 DUP1 REVERT JUMPDEST POP PUSH2 0x2DE PUSH2 0x4CD JUMP JUMPDEST PUSH1 0x40 MLOAD PUSH2 0x2EB SWAP2 SWAP1 PUSH2 0x12D9 JUMP JUMPDEST PUSH1 0x40 MLOAD DUP1 SWAP2 SUB SWAP1 RETURN JUMPDEST CALLVALUE DUP1 ISZERO PUSH2 0x300 JUMPI PUSH1 0x0 DUP1 REVERT JUMPDEST POP PUSH2 0x309 PUSH2 0x4D3 JUMP JUMPDEST PUSH1 0x40 MLOAD PUSH2 0x316 SWAP2 SWAP1 PUSH2 0x12D9 JUMP JUMPDEST PUSH1 0x40 MLOAD DUP1 SWAP2 SUB SWAP1 RETURN JUMPDEST PUSH2 0x327 PUSH2 0x4D9 JUMP JUMPDEST STOP JUMPDEST CALLVALUE DUP1 ISZERO PUSH2 0x335 JUMPI PUSH1 0x0 DUP1 REVERT JUMPDEST POP PUSH2 0x33E PUSH2 0xC32 JUMP JUMPDEST PUSH1 0x40 MLOAD PUSH2 0x34B SWAP2 SWAP1 PUSH2 0x1261 JUMP JUMPDEST PUSH1 0x40 MLOAD DUP1 SWAP2 SUB SWAP1 RETURN JUMPDEST CALLVALUE DUP1 ISZERO PUSH2 0x360 JUMPI PUSH1 0x0 DUP1 REVERT JUMPDEST POP PUSH2 0x37B PUSH1 0x4 DUP1 CALLDATASIZE SUB DUP2 ADD SWAP1 PUSH2 0x376 SWAP2 SWAP1 PUSH2 0xF3F JUMP JUMPDEST PUSH2 0xD09 JUMP JUMPDEST STOP JUMPDEST DUP1 PUSH1 0x4 DUP2 SWAP1 SSTORE POP POP JUMP JUMPDEST PUSH1 0x9 PUSH1 0x0 SWAP1 SLOAD SWAP1 PUSH2 0x100 EXP SWAP1 DIV PUSH20 0xFFFFFFFFFFFFFFFFFFFFFFFFFFFFFFFFFFFFFFFF AND DUP2 JUMP JUMPDEST DUP1 PUSH1 0x9 PUSH1 0x0 PUSH2 0x100 EXP DUP2 SLOAD DUP2 PUSH20 0xFFFFFFFFFFFFFFFFFFFFFFFFFFFFFFFFFFFFFFFF MUL NOT AND SWAP1 DUP4 PUSH20 0xFFFFFFFFFFFFFFFFFFFFFFFFFFFFFFFFFFFFFFFF AND MUL OR SWAP1 SSTORE POP POP JUMP JUMPDEST DUP1 PUSH1 0x3 DUP2 SWAP1 SSTORE POP POP JUMP JUMPDEST PUSH1 0x3 SLOAD DUP2 JUMP JUMPDEST PUSH1 0x1 SLOAD DUP2 JUMP JUMPDEST PUSH1 0x0 JUMPDEST DUP3 DUP3 SWAP1 POP DUP2 LT ISZERO PUSH2 0x476 JUMPI PUSH1 0x0 DUP4 DUP4 DUP4 DUP2 DUP2 LT PUSH2 0x42A JUMPI PUSH2 0x429 PUSH2 0x15FC JUMP JUMPDEST JUMPDEST SWAP1 POP PUSH1 0x40 MUL ADD SWAP1 DUP1 PUSH1 0x1 DUP2 SLOAD ADD DUP1 DUP3 SSTORE DUP1 SWAP2 POP POP PUSH1 0x1 SWAP1 SUB SWAP1 PUSH1 0x0 MSTORE PUSH1 0x20 PUSH1 0x0 KECCAK256 ADD PUSH1 0x0 SWAP1 SWAP2 SWAP1 SWAP2 SWAP1 SWAP2 POP DUP2 DUP2 PUSH2 0x461 SWAP2 SWAP1 PUSH2 0x175A JUMP JUMPDEST POP POP DUP1 DUP1 PUSH2 0x46E SWAP1 PUSH2 0x1555 JUMP JUMPDEST SWAP2 POP POP PUSH2 0x40A JUMP JUMPDEST POP POP POP JUMP JUMPDEST PUSH1 0x9 PUSH1 0x14 SWAP1 SLOAD SWAP1 PUSH2 0x100 EXP SWAP1 DIV PUSH1 0xFF AND DUP2 JUMP JUMPDEST PUSH1 0x6 PUSH1 0x0 SWAP1 SLOAD SWAP1 PUSH2 0x100 EXP SWAP1 DIV PUSH1 0xFF AND DUP2 JUMP JUMPDEST PUSH1 0x2 PUSH1 0x0 SWAP1 SLOAD SWAP1 PUSH2 0x100 EXP SWAP1 DIV PUSH20 0xFFFFFFFFFFFFFFFFFFFFFFFFFFFFFFFFFFFFFFFF AND DUP2 JUMP JUMPDEST PUSH1 0x4 SLOAD DUP2 JUMP JUMPDEST PUSH1 0x7 SLOAD DUP2 JUMP JUMPDEST PUSH1 0x5 SLOAD DUP2 JUMP JUMPDEST PUSH1 0x0 DUP1 DUP1 SLOAD SWAP1 POP GT PUSH2 0x520 JUMPI PUSH1 0x40 MLOAD PUSH32 0x8C379A000000000000000000000000000000000000000000000000000000000 DUP2 MSTORE PUSH1 0x4 ADD PUSH2 0x517 SWAP1 PUSH2 0x12B9 JUMP JUMPDEST PUSH1 0x40 MLOAD DUP1 SWAP2 SUB SWAP1 REVERT JUMPDEST PUSH1 0x9 PUSH1 0x14 SWAP1 SLOAD SWAP1 PUSH2 0x100 EXP SWAP1 DIV PUSH1 0xFF AND ISZERO PUSH2 0x53A JUMPI PUSH2 0xC30 JUMP JUMPDEST PUSH1 0x0 ADDRESS PUSH20 0xFFFFFFFFFFFFFFFFFFFFFFFFFFFFFFFFFFFFFFFF AND PUSH4 0x72F0F0A5 PUSH1 0x40 MLOAD DUP2 PUSH4 0xFFFFFFFF AND PUSH1 0xE0 SHL DUP2 MSTORE PUSH1 0x4 ADD PUSH1 0x20 PUSH1 0x40 MLOAD DUP1 DUP4 SUB DUP2 DUP7 DUP1 EXTCODESIZE ISZERO DUP1 ISZERO PUSH2 0x582 JUMPI PUSH1 0x0 DUP1 REVERT JUMPDEST POP GAS STATICCALL ISZERO DUP1 ISZERO PUSH2 0x596 JUMPI RETURNDATASIZE PUSH1 0x0 DUP1 RETURNDATACOPY RETURNDATASIZE PUSH1 0x0 REVERT JUMPDEST POP POP POP POP PUSH1 0x40 MLOAD RETURNDATASIZE PUSH1 0x1F NOT PUSH1 0x1F DUP3 ADD AND DUP3 ADD DUP1 PUSH1 0x40 MSTORE POP DUP2 ADD SWAP1 PUSH2 0x5BA SWAP2 SWAP1 PUSH2 0xF6C JUMP JUMPDEST SWAP1 POP PUSH1 0x0 DUP2 PUSH20 0xFFFFFFFFFFFFFFFFFFFFFFFFFFFFFFFFFFFFFFFF AND PUSH4 0x70A08231 ADDRESS PUSH1 0x40 MLOAD DUP3 PUSH4 0xFFFFFFFF AND PUSH1 0xE0 SHL DUP2 MSTORE PUSH1 0x4 ADD PUSH2 0x5F7 SWAP2 SWAP1 PUSH2 0x11CB JUMP JUMPDEST PUSH1 0x20 PUSH1 0x40 MLOAD DUP1 DUP4 SUB DUP2 DUP7 DUP1 EXTCODESIZE ISZERO DUP1 ISZERO PUSH2 0x60F JUMPI PUSH1 0x0 DUP1 REVERT JUMPDEST POP GAS STATICCALL ISZERO DUP1 ISZERO PUSH2 0x623 JUMPI RETURNDATASIZE PUSH1 0x0 DUP1 RETURNDATACOPY RETURNDATASIZE PUSH1 0x0 REVERT JUMPDEST POP POP POP POP PUSH1 0x40 MLOAD RETURNDATASIZE PUSH1 0x1F NOT PUSH1 0x1F DUP3 ADD AND DUP3 ADD DUP1 PUSH1 0x40 MSTORE POP DUP2 ADD SWAP1 PUSH2 0x647 SWAP2 SWAP1 PUSH2 0x106D JUMP JUMPDEST SWAP1 POP DUP1 PUSH1 0x7 PUSH1 0x0 DUP3 DUP3 SLOAD PUSH2 0x65B SWAP2 SWAP1 PUSH2 0x133E JUMP JUMPDEST SWAP3 POP POP DUP2 SWAP1 SSTORE POP PUSH1 0x7 SLOAD PUSH1 0x4 SLOAD GT PUSH2 0x7DC JUMPI DUP2 PUSH20 0xFFFFFFFFFFFFFFFFFFFFFFFFFFFFFFFFFFFFFFFF AND PUSH4 0xA9059CBB PUSH1 0x9 PUSH1 0x0 SWAP1 SLOAD SWAP1 PUSH2 0x100 EXP SWAP1 DIV PUSH20 0xFFFFFFFFFFFFFFFFFFFFFFFFFFFFFFFFFFFFFFFF AND PUSH1 0x4 SLOAD PUSH1 0x7 SLOAD PUSH2 0x6BC SWAP2 SWAP1 PUSH2 0x141F JUMP JUMPDEST PUSH1 0x40 MLOAD DUP4 PUSH4 0xFFFFFFFF AND PUSH1 0xE0 SHL DUP2 MSTORE PUSH1 0x4 ADD PUSH2 0x6D9 SWAP3 SWAP2 SWAP1 PUSH2 0x120F JUMP JUMPDEST PUSH1 0x20 PUSH1 0x40 MLOAD DUP1 DUP4 SUB DUP2 PUSH1 0x0 DUP8 DUP1 EXTCODESIZE ISZERO DUP1 ISZERO PUSH2 0x6F3 JUMPI PUSH1 0x0 DUP1 REVERT JUMPDEST POP GAS CALL ISZERO DUP1 ISZERO PUSH2 0x707 JUMPI RETURNDATASIZE PUSH1 0x0 DUP1 RETURNDATACOPY RETURNDATASIZE PUSH1 0x0 REVERT JUMPDEST POP POP POP POP PUSH1 0x40 MLOAD RETURNDATASIZE PUSH1 0x1F NOT PUSH1 0x1F DUP3 ADD AND DUP3 ADD DUP1 PUSH1 0x40 MSTORE POP DUP2 ADD SWAP1 PUSH2 0x72B SWAP2 SWAP1 PUSH2 0xFE6 JUMP JUMPDEST POP PUSH1 0x4 SLOAD PUSH1 0x7 DUP2 SWAP1 SSTORE POP PUSH1 0x1 PUSH1 0x9 PUSH1 0x14 PUSH2 0x100 EXP DUP2 SLOAD DUP2 PUSH1 0xFF MUL NOT AND SWAP1 DUP4 ISZERO ISZERO MUL OR SWAP1 SSTORE POP DUP2 PUSH20 0xFFFFFFFFFFFFFFFFFFFFFFFFFFFFFFFFFFFFFFFF AND PUSH4 0x70A08231 ADDRESS PUSH1 0x40 MLOAD DUP3 PUSH4 0xFFFFFFFF AND PUSH1 0xE0 SHL DUP2 MSTORE PUSH1 0x4 ADD PUSH2 0x789 SWAP2 SWAP1 PUSH2 0x11CB JUMP JUMPDEST PUSH1 0x20 PUSH1 0x40 MLOAD DUP1 DUP4 SUB DUP2 DUP7 DUP1 EXTCODESIZE ISZERO DUP1 ISZERO PUSH2 0x7A1 JUMPI PUSH1 0x0 DUP1 REVERT JUMPDEST POP GAS STATICCALL ISZERO DUP1 ISZERO PUSH2 0x7B5 JUMPI RETURNDATASIZE PUSH1 0x0 DUP1 RETURNDATACOPY RETURNDATASIZE PUSH1 0x0 REVERT JUMPDEST POP POP POP POP PUSH1 0x40 MLOAD RETURNDATASIZE PUSH1 0x1F NOT PUSH1 0x1F DUP3 ADD AND DUP3 ADD DUP1 PUSH1 0x40 MSTORE POP DUP2 ADD SWAP1 PUSH2 0x7D9 SWAP2 SWAP1 PUSH2 0x106D JUMP JUMPDEST SWAP1 POP JUMPDEST PUSH1 0x0 JUMPDEST PUSH1 0x0 DUP1 SLOAD SWAP1 POP DUP2 LT ISZERO PUSH2 0xB97 JUMPI PUSH1 0x0 DUP1 DUP3 DUP2 SLOAD DUP2 LT PUSH2 0x801 JUMPI PUSH2 0x800 PUSH2 0x15FC JUMP JUMPDEST JUMPDEST SWAP1 PUSH1 0x0 MSTORE PUSH1 0x20 PUSH1 0x0 KECCAK256 ADD PUSH1 0x40 MLOAD DUP1 PUSH1 0x40 ADD PUSH1 0x40 MSTORE SWAP1 DUP2 PUSH1 0x0 DUP3 ADD PUSH1 0x0 SWAP1 SLOAD SWAP1 PUSH2 0x100 EXP SWAP1 DIV PUSH20 0xFFFFFFFFFFFFFFFFFFFFFFFFFFFFFFFFFFFFFFFF AND PUSH20 0xFFFFFFFFFFFFFFFFFFFFFFFFFFFFFFFFFFFFFFFF AND PUSH20 0xFFFFFFFFFFFFFFFFFFFFFFFFFFFFFFFFFFFFFFFF AND DUP2 MSTORE PUSH1 0x20 ADD PUSH1 0x0 DUP3 ADD PUSH1 0x14 SWAP1 SLOAD SWAP1 PUSH2 0x100 EXP SWAP1 DIV PUSH4 0xFFFFFFFF AND PUSH4 0xFFFFFFFF AND PUSH4 0xFFFFFFFF AND DUP2 MSTORE POP POP SWAP1 POP DUP4 PUSH20 0xFFFFFFFFFFFFFFFFFFFFFFFFFFFFFFFFFFFFFFFF AND PUSH4 0xDD62ED3E CALLER ADDRESS PUSH1 0x40 MLOAD DUP4 PUSH4 0xFFFFFFFF AND PUSH1 0xE0 SHL DUP2 MSTORE PUSH1 0x4 ADD PUSH2 0x8CF SWAP3 SWAP2 SWAP1 PUSH2 0x11E6 JUMP JUMPDEST PUSH1 0x20 PUSH1 0x40 MLOAD DUP1 DUP4 SUB DUP2 DUP7 DUP1 EXTCODESIZE ISZERO DUP1 ISZERO PUSH2 0x8E7 JUMPI PUSH1 0x0 DUP1 REVERT JUMPDEST POP GAS STATICCALL ISZERO DUP1 ISZERO PUSH2 0x8FB JUMPI RETURNDATASIZE PUSH1 0x0 DUP1 RETURNDATACOPY RETURNDATASIZE PUSH1 0x0 REVERT JUMPDEST POP POP POP POP PUSH1 0x40 MLOAD RETURNDATASIZE PUSH1 0x1F NOT PUSH1 0x1F DUP3 ADD AND DUP3 ADD DUP1 PUSH1 0x40 MSTORE POP DUP2 ADD SWAP1 PUSH2 0x91F SWAP2 SWAP1 PUSH2 0x106D JUMP JUMPDEST POP DUP4 PUSH20 0xFFFFFFFFFFFFFFFFFFFFFFFFFFFFFFFFFFFFFFFF AND PUSH4 0xDD62ED3E ADDRESS CALLER PUSH1 0x40 MLOAD DUP4 PUSH4 0xFFFFFFFF AND PUSH1 0xE0 SHL DUP2 MSTORE PUSH1 0x4 ADD PUSH2 0x95B SWAP3 SWAP2 SWAP1 PUSH2 0x11E6 JUMP JUMPDEST PUSH1 0x20 PUSH1 0x40 MLOAD DUP1 DUP4 SUB DUP2 DUP7 DUP1 EXTCODESIZE ISZERO DUP1 ISZERO PUSH2 0x973 JUMPI PUSH1 0x0 DUP1 REVERT JUMPDEST POP GAS STATICCALL ISZERO DUP1 ISZERO PUSH2 0x987 JUMPI RETURNDATASIZE PUSH1 0x0 DUP1 RETURNDATACOPY RETURNDATASIZE PUSH1 0x0 REVERT JUMPDEST POP POP POP POP PUSH1 0x40 MLOAD RETURNDATASIZE PUSH1 0x1F NOT PUSH1 0x1F DUP3 ADD AND DUP3 ADD DUP1 PUSH1 0x40 MSTORE POP DUP2 ADD SWAP1 PUSH2 0x9AB SWAP2 SWAP1 PUSH2 0x106D JUMP JUMPDEST POP DUP4 PUSH20 0xFFFFFFFFFFFFFFFFFFFFFFFFFFFFFFFFFFFFFFFF AND PUSH4 0x39509351 CALLER DUP4 PUSH1 0x20 ADD MLOAD PUSH1 0x40 MLOAD DUP4 PUSH4 0xFFFFFFFF AND PUSH1 0xE0 SHL DUP2 MSTORE PUSH1 0x4 ADD PUSH2 0x9EB SWAP3 SWAP2 SWAP1 PUSH2 0x1238 JUMP JUMPDEST PUSH1 0x20 PUSH1 0x40 MLOAD DUP1 DUP4 SUB DUP2 PUSH1 0x0 DUP8 DUP1 EXTCODESIZE ISZERO DUP1 ISZERO PUSH2 0xA05 JUMPI PUSH1 0x0 DUP1 REVERT JUMPDEST POP GAS CALL ISZERO DUP1 ISZERO PUSH2 0xA19 JUMPI RETURNDATASIZE PUSH1 0x0 DUP1 RETURNDATACOPY RETURNDATASIZE PUSH1 0x0 REVERT JUMPDEST POP POP POP POP PUSH1 0x40 MLOAD RETURNDATASIZE PUSH1 0x1F NOT PUSH1 0x1F DUP3 ADD AND DUP3 ADD DUP1 PUSH1 0x40 MSTORE POP DUP2 ADD SWAP1 PUSH2 0xA3D SWAP2 SWAP1 PUSH2 0xFE6 JUMP JUMPDEST POP DUP4 PUSH20 0xFFFFFFFFFFFFFFFFFFFFFFFFFFFFFFFFFFFFFFFF AND PUSH4 0x39509351 ADDRESS DUP4 PUSH1 0x20 ADD MLOAD PUSH1 0x40 MLOAD DUP4 PUSH4 0xFFFFFFFF AND PUSH1 0xE0 SHL DUP2 MSTORE PUSH1 0x4 ADD PUSH2 0xA7D SWAP3 SWAP2 SWAP1 PUSH2 0x1238 JUMP JUMPDEST PUSH1 0x20 PUSH1 0x40 MLOAD DUP1 DUP4 SUB DUP2 PUSH1 0x0 DUP8 DUP1 EXTCODESIZE ISZERO DUP1 ISZERO PUSH2 0xA97 JUMPI PUSH1 0x0 DUP1 REVERT JUMPDEST POP GAS CALL ISZERO DUP1 ISZERO PUSH2 0xAAB JUMPI RETURNDATASIZE PUSH1 0x0 DUP1 RETURNDATACOPY RETURNDATASIZE PUSH1 0x0 REVERT JUMPDEST POP POP POP POP PUSH1 0x40 MLOAD RETURNDATASIZE PUSH1 0x1F NOT PUSH1 0x1F DUP3 ADD AND DUP3 ADD DUP1 PUSH1 0x40 MSTORE POP DUP2 ADD SWAP1 PUSH2 0xACF SWAP2 SWAP1 PUSH2 0xFE6 JUMP JUMPDEST POP DUP4 PUSH20 0xFFFFFFFFFFFFFFFFFFFFFFFFFFFFFFFFFFFFFFFF AND PUSH4 0xA9059CBB DUP3 PUSH1 0x0 ADD MLOAD PUSH1 0x64 DUP5 PUSH1 0x20 ADD MLOAD PUSH4 0xFFFFFFFF AND DUP8 PUSH2 0xB09 SWAP2 SWAP1 PUSH2 0x13C5 JUMP JUMPDEST PUSH2 0xB13 SWAP2 SWAP1 PUSH2 0x1394 JUMP JUMPDEST PUSH1 0x40 MLOAD DUP4 PUSH4 0xFFFFFFFF AND PUSH1 0xE0 SHL DUP2 MSTORE PUSH1 0x4 ADD PUSH2 0xB30 SWAP3 SWAP2 SWAP1 PUSH2 0x120F JUMP JUMPDEST PUSH1 0x20 PUSH1 0x40 MLOAD DUP1 DUP4 SUB DUP2 PUSH1 0x0 DUP8 DUP1 EXTCODESIZE ISZERO DUP1 ISZERO PUSH2 0xB4A JUMPI PUSH1 0x0 DUP1 REVERT JUMPDEST POP GAS CALL ISZERO DUP1 ISZERO PUSH2 0xB5E JUMPI RETURNDATASIZE PUSH1 0x0 DUP1 RETURNDATACOPY RETURNDATASIZE PUSH1 0x0 REVERT JUMPDEST POP POP POP POP PUSH1 0x40 MLOAD RETURNDATASIZE PUSH1 0x1F NOT PUSH1 0x1F DUP3 ADD AND DUP3 ADD DUP1 PUSH1 0x40 MSTORE POP DUP2 ADD SWAP1 PUSH2 0xB82 SWAP2 SWAP1 PUSH2 0xFE6 JUMP JUMPDEST POP POP DUP1 DUP1 PUSH2 0xB8F SWAP1 PUSH2 0x1555 JUMP JUMPDEST SWAP2 POP POP PUSH2 0x7DF JUMP JUMPDEST POP PUSH1 0x7 SLOAD PUSH1 0x4 SLOAD EQ ISZERO PUSH2 0xC2D JUMPI PUSH1 0x0 PUSH1 0x9 PUSH1 0x0 SWAP1 SLOAD SWAP1 PUSH2 0x100 EXP SWAP1 DIV PUSH20 0xFFFFFFFFFFFFFFFFFFFFFFFFFFFFFFFFFFFFFFFF AND SWAP1 POP DUP1 PUSH20 0xFFFFFFFFFFFFFFFFFFFFFFFFFFFFFFFFFFFFFFFF AND PUSH4 0xADE42178 PUSH1 0x40 MLOAD DUP2 PUSH4 0xFFFFFFFF AND PUSH1 0xE0 SHL DUP2 MSTORE PUSH1 0x4 ADD PUSH1 0x0 PUSH1 0x40 MLOAD DUP1 DUP4 SUB DUP2 PUSH1 0x0 DUP8 DUP1 EXTCODESIZE ISZERO DUP1 ISZERO PUSH2 0xC13 JUMPI PUSH1 0x0 DUP1 REVERT JUMPDEST POP GAS CALL ISZERO DUP1 ISZERO PUSH2 0xC27 JUMPI RETURNDATASIZE PUSH1 0x0 DUP1 RETURNDATACOPY RETURNDATASIZE PUSH1 0x0 REVERT JUMPDEST POP POP POP POP POP JUMPDEST POP POP JUMPDEST JUMP JUMPDEST PUSH1 0x60 PUSH1 0x0 DUP1 SLOAD DUP1 PUSH1 0x20 MUL PUSH1 0x20 ADD PUSH1 0x40 MLOAD SWAP1 DUP2 ADD PUSH1 0x40 MSTORE DUP1 SWAP3 SWAP2 SWAP1 DUP2 DUP2 MSTORE PUSH1 0x20 ADD PUSH1 0x0 SWAP1 JUMPDEST DUP3 DUP3 LT ISZERO PUSH2 0xD00 JUMPI DUP4 DUP3 SWAP1 PUSH1 0x0 MSTORE PUSH1 0x20 PUSH1 0x0 KECCAK256 ADD PUSH1 0x40 MLOAD DUP1 PUSH1 0x40 ADD PUSH1 0x40 MSTORE SWAP1 DUP2 PUSH1 0x0 DUP3 ADD PUSH1 0x0 SWAP1 SLOAD SWAP1 PUSH2 0x100 EXP SWAP1 DIV PUSH20 0xFFFFFFFFFFFFFFFFFFFFFFFFFFFFFFFFFFFFFFFF AND PUSH20 0xFFFFFFFFFFFFFFFFFFFFFFFFFFFFFFFFFFFFFFFF AND PUSH20 0xFFFFFFFFFFFFFFFFFFFFFFFFFFFFFFFFFFFFFFFF AND DUP2 MSTORE PUSH1 0x20 ADD PUSH1 0x0 DUP3 ADD PUSH1 0x14 SWAP1 SLOAD SWAP1 PUSH2 0x100 EXP SWAP1 DIV PUSH4 0xFFFFFFFF AND PUSH4 0xFFFFFFFF AND PUSH4 0xFFFFFFFF AND DUP2 MSTORE POP POP DUP2 MSTORE PUSH1 0x20 ADD SWAP1 PUSH1 0x1 ADD SWAP1 PUSH2 0xC56 JUMP JUMPDEST POP POP POP POP SWAP1 POP SWAP1 JUMP JUMPDEST DUP1 PUSH1 0x2 PUSH1 0x0 PUSH2 0x100 EXP DUP2 SLOAD DUP2 PUSH20 0xFFFFFFFFFFFFFFFFFFFFFFFFFFFFFFFFFFFFFFFF MUL NOT AND SWAP1 DUP4 PUSH20 0xFFFFFFFFFFFFFFFFFFFFFFFFFFFFFFFFFFFFFFFF AND MUL OR SWAP1 SSTORE POP PUSH1 0x0 DUP2 SWAP1 POP DUP1 PUSH20 0xFFFFFFFFFFFFFFFFFFFFFFFFFFFFFFFFFFFFFFFF AND PUSH4 0xDD62ED3E CALLER ADDRESS PUSH1 0x40 MLOAD DUP4 PUSH4 0xFFFFFFFF AND PUSH1 0xE0 SHL DUP2 MSTORE PUSH1 0x4 ADD PUSH2 0xD8A SWAP3 SWAP2 SWAP1 PUSH2 0x11E6 JUMP JUMPDEST PUSH1 0x20 PUSH1 0x40 MLOAD DUP1 DUP4 SUB DUP2 DUP7 DUP1 EXTCODESIZE ISZERO DUP1 ISZERO PUSH2 0xDA2 JUMPI PUSH1 0x0 DUP1 REVERT JUMPDEST POP GAS STATICCALL ISZERO DUP1 ISZERO PUSH2 0xDB6 JUMPI RETURNDATASIZE PUSH1 0x0 DUP1 RETURNDATACOPY RETURNDATASIZE PUSH1 0x0 REVERT JUMPDEST POP POP POP POP PUSH1 0x40 MLOAD RETURNDATASIZE PUSH1 0x1F NOT PUSH1 0x1F DUP3 ADD AND DUP3 ADD DUP1 PUSH1 0x40 MSTORE POP DUP2 ADD SWAP1 PUSH2 0xDDA SWAP2 SWAP1 PUSH2 0x106D JUMP JUMPDEST POP DUP1 PUSH20 0xFFFFFFFFFFFFFFFFFFFFFFFFFFFFFFFFFFFFFFFF AND PUSH4 0xDD62ED3E ADDRESS CALLER PUSH1 0x40 MLOAD DUP4 PUSH4 0xFFFFFFFF AND PUSH1 0xE0 SHL DUP2 MSTORE PUSH1 0x4 ADD PUSH2 0xE16 SWAP3 SWAP2 SWAP1 PUSH2 0x11E6 JUMP JUMPDEST PUSH1 0x20 PUSH1 0x40 MLOAD DUP1 DUP4 SUB DUP2 DUP7 DUP1 EXTCODESIZE ISZERO DUP1 ISZERO PUSH2 0xE2E JUMPI PUSH1 0x0 DUP1 REVERT JUMPDEST POP GAS STATICCALL ISZERO DUP1 ISZERO PUSH2 0xE42 JUMPI RETURNDATASIZE PUSH1 0x0 DUP1 RETURNDATACOPY RETURNDATASIZE PUSH1 0x0 REVERT JUMPDEST POP POP POP POP PUSH1 0x40 MLOAD RETURNDATASIZE PUSH1 0x1F NOT PUSH1 0x1F DUP3 ADD AND DUP3 ADD DUP1 PUSH1 0x40 MSTORE POP DUP2 ADD SWAP1 PUSH2 0xE66 SWAP2 SWAP1 PUSH2 0x106D JUMP JUMPDEST POP POP POP JUMP JUMPDEST PUSH1 0x0 DUP2 CALLDATALOAD SWAP1 POP PUSH2 0xE7A DUP2 PUSH2 0x178B JUMP JUMPDEST SWAP3 SWAP2 POP POP JUMP JUMPDEST PUSH1 0x0 DUP2 MLOAD SWAP1 POP PUSH2 0xE8F DUP2 PUSH2 0x178B JUMP JUMPDEST SWAP3 SWAP2 POP POP JUMP JUMPDEST PUSH1 0x0 DUP1 DUP4 PUSH1 0x1F DUP5 ADD SLT PUSH2 0xEAB JUMPI PUSH2 0xEAA PUSH2 0x1670 JUMP JUMPDEST JUMPDEST DUP3 CALLDATALOAD SWAP1 POP PUSH8 0xFFFFFFFFFFFFFFFF DUP2 GT ISZERO PUSH2 0xEC8 JUMPI PUSH2 0xEC7 PUSH2 0x166B JUMP JUMPDEST JUMPDEST PUSH1 0x20 DUP4 ADD SWAP2 POP DUP4 PUSH1 0x40 DUP3 MUL DUP4 ADD GT ISZERO PUSH2 0xEE4 JUMPI PUSH2 0xEE3 PUSH2 0x1675 JUMP JUMPDEST JUMPDEST SWAP3 POP SWAP3 SWAP1 POP JUMP JUMPDEST PUSH1 0x0 DUP2 MLOAD SWAP1 POP PUSH2 0xEFA DUP2 PUSH2 0x17A2 JUMP JUMPDEST SWAP3 SWAP2 POP POP JUMP JUMPDEST PUSH1 0x0 DUP2 CALLDATALOAD SWAP1 POP PUSH2 0xF0F DUP2 PUSH2 0x17B9 JUMP JUMPDEST SWAP3 SWAP2 POP POP JUMP JUMPDEST PUSH1 0x0 DUP2 CALLDATALOAD SWAP1 POP PUSH2 0xF24 DUP2 PUSH2 0x17D0 JUMP JUMPDEST SWAP3 SWAP2 POP POP JUMP JUMPDEST PUSH1 0x0 DUP2 MLOAD SWAP1 POP PUSH2 0xF39 DUP2 PUSH2 0x17D0 JUMP JUMPDEST SWAP3 SWAP2 POP POP JUMP JUMPDEST PUSH1 0x0 PUSH1 0x20 DUP3 DUP5 SUB SLT ISZERO PUSH2 0xF55 JUMPI PUSH2 0xF54 PUSH2 0x167F JUMP JUMPDEST JUMPDEST PUSH1 0x0 PUSH2 0xF63 DUP5 DUP3 DUP6 ADD PUSH2 0xE6B JUMP JUMPDEST SWAP2 POP POP SWAP3 SWAP2 POP POP JUMP JUMPDEST PUSH1 0x0 PUSH1 0x20 DUP3 DUP5 SUB SLT ISZERO PUSH2 0xF82 JUMPI PUSH2 0xF81 PUSH2 0x167F JUMP JUMPDEST JUMPDEST PUSH1 0x0 PUSH2 0xF90 DUP5 DUP3 DUP6 ADD PUSH2 0xE80 JUMP JUMPDEST SWAP2 POP POP SWAP3 SWAP2 POP POP JUMP JUMPDEST PUSH1 0x0 DUP1 PUSH1 0x20 DUP4 DUP6 SUB SLT ISZERO PUSH2 0xFB0 JUMPI PUSH2 0xFAF PUSH2 0x167F JUMP JUMPDEST JUMPDEST PUSH1 0x0 DUP4 ADD CALLDATALOAD PUSH8 0xFFFFFFFFFFFFFFFF DUP2 GT ISZERO PUSH2 0xFCE JUMPI PUSH2 0xFCD PUSH2 0x167A JUMP JUMPDEST JUMPDEST PUSH2 0xFDA DUP6 DUP3 DUP7 ADD PUSH2 0xE95 JUMP JUMPDEST SWAP3 POP SWAP3 POP POP SWAP3 POP SWAP3 SWAP1 POP JUMP JUMPDEST PUSH1 0x0 PUSH1 0x20 DUP3 DUP5 SUB SLT ISZERO PUSH2 0xFFC JUMPI PUSH2 0xFFB PUSH2 0x167F JUMP JUMPDEST JUMPDEST PUSH1 0x0 PUSH2 0x100A DUP5 DUP3 DUP6 ADD PUSH2 0xEEB JUMP JUMPDEST SWAP2 POP POP SWAP3 SWAP2 POP POP JUMP JUMPDEST PUSH1 0x0 PUSH1 0x20 DUP3 DUP5 SUB SLT ISZERO PUSH2 0x1029 JUMPI PUSH2 0x1028 PUSH2 0x167F JUMP JUMPDEST JUMPDEST PUSH1 0x0 PUSH2 0x1037 DUP5 DUP3 DUP6 ADD PUSH2 0xF00 JUMP JUMPDEST SWAP2 POP POP SWAP3 SWAP2 POP POP JUMP JUMPDEST PUSH1 0x0 PUSH1 0x20 DUP3 DUP5 SUB SLT ISZERO PUSH2 0x1056 JUMPI PUSH2 0x1055 PUSH2 0x167F JUMP JUMPDEST JUMPDEST PUSH1 0x0 PUSH2 0x1064 DUP5 DUP3 DUP6 ADD PUSH2 0xF15 JUMP JUMPDEST SWAP2 POP POP SWAP3 SWAP2 POP POP JUMP JUMPDEST PUSH1 0x0 PUSH1 0x20 DUP3 DUP5 SUB SLT ISZERO PUSH2 0x1083 JUMPI PUSH2 0x1082 PUSH2 0x167F JUMP JUMPDEST JUMPDEST PUSH1 0x0 PUSH2 0x1091 DUP5 DUP3 DUP6 ADD PUSH2 0xF2A JUMP JUMPDEST SWAP2 POP POP SWAP3 SWAP2 POP POP JUMP JUMPDEST PUSH1 0x0 PUSH2 0x10A6 DUP4 DUP4 PUSH2 0x116F JUMP JUMPDEST PUSH1 0x40 DUP4 ADD SWAP1 POP SWAP3 SWAP2 POP POP JUMP JUMPDEST PUSH2 0x10BB DUP2 PUSH2 0x1453 JUMP JUMPDEST DUP3 MSTORE POP POP JUMP JUMPDEST PUSH2 0x10CA DUP2 PUSH2 0x1453 JUMP JUMPDEST DUP3 MSTORE POP POP JUMP JUMPDEST PUSH1 0x0 PUSH2 0x10DB DUP3 PUSH2 0x1304 JUMP JUMPDEST PUSH2 0x10E5 DUP2 DUP6 PUSH2 0x131C JUMP JUMPDEST SWAP4 POP PUSH2 0x10F0 DUP4 PUSH2 0x12F4 JUMP JUMPDEST DUP1 PUSH1 0x0 JUMPDEST DUP4 DUP2 LT ISZERO PUSH2 0x1121 JUMPI DUP2 MLOAD PUSH2 0x1108 DUP9 DUP3 PUSH2 0x109A JUMP JUMPDEST SWAP8 POP PUSH2 0x1113 DUP4 PUSH2 0x130F JUMP JUMPDEST SWAP3 POP POP PUSH1 0x1 DUP2 ADD SWAP1 POP PUSH2 0x10F4 JUMP JUMPDEST POP DUP6 SWAP4 POP POP POP POP SWAP3 SWAP2 POP POP JUMP JUMPDEST PUSH2 0x1137 DUP2 PUSH2 0x1465 JUMP JUMPDEST DUP3 MSTORE POP POP JUMP JUMPDEST PUSH2 0x1146 DUP2 PUSH2 0x1471 JUMP JUMPDEST DUP3 MSTORE POP POP JUMP JUMPDEST PUSH1 0x0 PUSH2 0x1159 PUSH1 0x1 DUP4 PUSH2 0x132D JUMP JUMPDEST SWAP2 POP PUSH2 0x1164 DUP3 PUSH2 0x169E JUMP JUMPDEST PUSH1 0x20 DUP3 ADD SWAP1 POP SWAP2 SWAP1 POP JUMP JUMPDEST PUSH1 0x40 DUP3 ADD PUSH1 0x0 DUP3 ADD MLOAD PUSH2 0x1185 PUSH1 0x0 DUP6 ADD DUP3 PUSH2 0x10B2 JUMP JUMPDEST POP PUSH1 0x20 DUP3 ADD MLOAD PUSH2 0x1198 PUSH1 0x20 DUP6 ADD DUP3 PUSH2 0x11BC JUMP JUMPDEST POP POP POP POP JUMP JUMPDEST PUSH2 0x11A7 DUP2 PUSH2 0x149B JUMP JUMPDEST DUP3 MSTORE POP POP JUMP JUMPDEST PUSH2 0x11B6 DUP2 PUSH2 0x14EB JUMP JUMPDEST DUP3 MSTORE POP POP JUMP JUMPDEST PUSH2 0x11C5 DUP2 PUSH2 0x14A5 JUMP JUMPDEST DUP3 MSTORE POP POP JUMP JUMPDEST PUSH1 0x0 PUSH1 0x20 DUP3 ADD SWAP1 POP PUSH2 0x11E0 PUSH1 0x0 DUP4 ADD DUP5 PUSH2 0x10C1 JUMP JUMPDEST SWAP3 SWAP2 POP POP JUMP JUMPDEST PUSH1 0x0 PUSH1 0x40 DUP3 ADD SWAP1 POP PUSH2 0x11FB PUSH1 0x0 DUP4 ADD DUP6 PUSH2 0x10C1 JUMP JUMPDEST PUSH2 0x1208 PUSH1 0x20 DUP4 ADD DUP5 PUSH2 0x10C1 JUMP JUMPDEST SWAP4 SWAP3 POP POP POP JUMP JUMPDEST PUSH1 0x0 PUSH1 0x40 DUP3 ADD SWAP1 POP PUSH2 0x1224 PUSH1 0x0 DUP4 ADD DUP6 PUSH2 0x10C1 JUMP JUMPDEST PUSH2 0x1231 PUSH1 0x20 DUP4 ADD DUP5 PUSH2 0x119E JUMP JUMPDEST SWAP4 SWAP3 POP POP POP JUMP JUMPDEST PUSH1 0x0 PUSH1 0x40 DUP3 ADD SWAP1 POP PUSH2 0x124D PUSH1 0x0 DUP4 ADD DUP6 PUSH2 0x10C1 JUMP JUMPDEST PUSH2 0x125A PUSH1 0x20 DUP4 ADD DUP5 PUSH2 0x11AD JUMP JUMPDEST SWAP4 SWAP3 POP POP POP JUMP JUMPDEST PUSH1 0x0 PUSH1 0x20 DUP3 ADD SWAP1 POP DUP2 DUP2 SUB PUSH1 0x0 DUP4 ADD MSTORE PUSH2 0x127B DUP2 DUP5 PUSH2 0x10D0 JUMP JUMPDEST SWAP1 POP SWAP3 SWAP2 POP POP JUMP JUMPDEST PUSH1 0x0 PUSH1 0x20 DUP3 ADD SWAP1 POP PUSH2 0x1298 PUSH1 0x0 DUP4 ADD DUP5 PUSH2 0x112E JUMP JUMPDEST SWAP3 SWAP2 POP POP JUMP JUMPDEST PUSH1 0x0 PUSH1 0x20 DUP3 ADD SWAP1 POP PUSH2 0x12B3 PUSH1 0x0 DUP4 ADD DUP5 PUSH2 0x113D JUMP JUMPDEST SWAP3 SWAP2 POP POP JUMP JUMPDEST PUSH1 0x0 PUSH1 0x20 DUP3 ADD SWAP1 POP DUP2 DUP2 SUB PUSH1 0x0 DUP4 ADD MSTORE PUSH2 0x12D2 DUP2 PUSH2 0x114C JUMP JUMPDEST SWAP1 POP SWAP2 SWAP1 POP JUMP JUMPDEST PUSH1 0x0 PUSH1 0x20 DUP3 ADD SWAP1 POP PUSH2 0x12EE PUSH1 0x0 DUP4 ADD DUP5 PUSH2 0x119E JUMP JUMPDEST SWAP3 SWAP2 POP POP JUMP JUMPDEST PUSH1 0x0 DUP2 SWAP1 POP PUSH1 0x20 DUP3 ADD SWAP1 POP SWAP2 SWAP1 POP JUMP JUMPDEST PUSH1 0x0 DUP2 MLOAD SWAP1 POP SWAP2 SWAP1 POP JUMP JUMPDEST PUSH1 0x0 PUSH1 0x20 DUP3 ADD SWAP1 POP SWAP2 SWAP1 POP JUMP JUMPDEST PUSH1 0x0 DUP3 DUP3 MSTORE PUSH1 0x20 DUP3 ADD SWAP1 POP SWAP3 SWAP2 POP POP JUMP JUMPDEST PUSH1 0x0 DUP3 DUP3 MSTORE PUSH1 0x20 DUP3 ADD SWAP1 POP SWAP3 SWAP2 POP POP JUMP JUMPDEST PUSH1 0x0 PUSH2 0x1349 DUP3 PUSH2 0x149B JUMP JUMPDEST SWAP2 POP PUSH2 0x1354 DUP4 PUSH2 0x149B JUMP JUMPDEST SWAP3 POP DUP3 PUSH32 0xFFFFFFFFFFFFFFFFFFFFFFFFFFFFFFFFFFFFFFFFFFFFFFFFFFFFFFFFFFFFFFFF SUB DUP3 GT ISZERO PUSH2 0x1389 JUMPI PUSH2 0x1388 PUSH2 0x159E JUMP JUMPDEST JUMPDEST DUP3 DUP3 ADD SWAP1 POP SWAP3 SWAP2 POP POP JUMP JUMPDEST PUSH1 0x0 PUSH2 0x139F DUP3 PUSH2 0x149B JUMP JUMPDEST SWAP2 POP PUSH2 0x13AA DUP4 PUSH2 0x149B JUMP JUMPDEST SWAP3 POP DUP3 PUSH2 0x13BA JUMPI PUSH2 0x13B9 PUSH2 0x15CD JUMP JUMPDEST JUMPDEST DUP3 DUP3 DIV SWAP1 POP SWAP3 SWAP2 POP POP JUMP JUMPDEST PUSH1 0x0 PUSH2 0x13D0 DUP3 PUSH2 0x149B JUMP JUMPDEST SWAP2 POP PUSH2 0x13DB DUP4 PUSH2 0x149B JUMP JUMPDEST SWAP3 POP DUP2 PUSH32 0xFFFFFFFFFFFFFFFFFFFFFFFFFFFFFFFFFFFFFFFFFFFFFFFFFFFFFFFFFFFFFFFF DIV DUP4 GT DUP3 ISZERO ISZERO AND ISZERO PUSH2 0x1414 JUMPI PUSH2 0x1413 PUSH2 0x159E JUMP JUMPDEST JUMPDEST DUP3 DUP3 MUL SWAP1 POP SWAP3 SWAP2 POP POP JUMP JUMPDEST PUSH1 0x0 PUSH2 0x142A DUP3 PUSH2 0x149B JUMP JUMPDEST SWAP2 POP PUSH2 0x1435 DUP4 PUSH2 0x149B JUMP JUMPDEST SWAP3 POP DUP3 DUP3 LT ISZERO PUSH2 0x1448 JUMPI PUSH2 0x1447 PUSH2 0x159E JUMP JUMPDEST JUMPDEST DUP3 DUP3 SUB SWAP1 POP SWAP3 SWAP2 POP POP JUMP JUMPDEST PUSH1 0x0 PUSH2 0x145E DUP3 PUSH2 0x147B JUMP JUMPDEST SWAP1 POP SWAP2 SWAP1 POP JUMP JUMPDEST PUSH1 0x0 DUP2 ISZERO ISZERO SWAP1 POP SWAP2 SWAP1 POP JUMP JUMPDEST PUSH1 0x0 DUP2 SWAP1 POP SWAP2 SWAP1 POP JUMP JUMPDEST PUSH1 0x0 PUSH20 0xFFFFFFFFFFFFFFFFFFFFFFFFFFFFFFFFFFFFFFFF DUP3 AND SWAP1 POP SWAP2 SWAP1 POP JUMP JUMPDEST PUSH1 0x0 DUP2 SWAP1 POP SWAP2 SWAP1 POP JUMP JUMPDEST PUSH1 0x0 PUSH4 0xFFFFFFFF DUP3 AND SWAP1 POP SWAP2 SWAP1 POP JUMP JUMPDEST PUSH1 0x0 PUSH2 0x14C0 DUP3 PUSH2 0x14C7 JUMP JUMPDEST SWAP1 POP SWAP2 SWAP1 POP JUMP JUMPDEST PUSH1 0x0 PUSH2 0x14D2 DUP3 PUSH2 0x14D9 JUMP JUMPDEST SWAP1 POP SWAP2 SWAP1 POP JUMP JUMPDEST PUSH1 0x0 PUSH2 0x14E4 DUP3 PUSH2 0x147B JUMP JUMPDEST SWAP1 POP SWAP2 SWAP1 POP JUMP JUMPDEST PUSH1 0x0 PUSH2 0x14F6 DUP3 PUSH2 0x14A5 JUMP JUMPDEST SWAP1 POP SWAP2 SWAP1 POP JUMP JUMPDEST PUSH1 0x0 PUSH2 0x1508 DUP3 PUSH2 0x14A5 JUMP JUMPDEST SWAP1 POP SWAP2 SWAP1 POP JUMP JUMPDEST PUSH1 0x0 DUP2 ADD PUSH1 0x0 DUP4 ADD DUP1 PUSH2 0x1521 DUP2 PUSH2 0x163F JUMP JUMPDEST SWAP1 POP PUSH2 0x152D DUP2 DUP5 PUSH2 0x1737 JUMP JUMPDEST POP POP POP PUSH1 0x0 DUP2 ADD PUSH1 0x20 DUP4 ADD DUP1 PUSH2 0x1542 DUP2 PUSH2 0x1655 JUMP JUMPDEST SWAP1 POP PUSH2 0x154E DUP2 DUP5 PUSH2 0x1768 JUMP JUMPDEST POP POP POP POP POP JUMP JUMPDEST PUSH1 0x0 PUSH2 0x1560 DUP3 PUSH2 0x149B JUMP JUMPDEST SWAP2 POP PUSH32 0xFFFFFFFFFFFFFFFFFFFFFFFFFFFFFFFFFFFFFFFFFFFFFFFFFFFFFFFFFFFFFFFF DUP3 EQ ISZERO PUSH2 0x1593 JUMPI PUSH2 0x1592 PUSH2 0x159E JUMP JUMPDEST JUMPDEST PUSH1 0x1 DUP3 ADD SWAP1 POP SWAP2 SWAP1 POP JUMP JUMPDEST PUSH32 0x4E487B7100000000000000000000000000000000000000000000000000000000 PUSH1 0x0 MSTORE PUSH1 0x11 PUSH1 0x4 MSTORE PUSH1 0x24 PUSH1 0x0 REVERT JUMPDEST PUSH32 0x4E487B7100000000000000000000000000000000000000000000000000000000 PUSH1 0x0 MSTORE PUSH1 0x12 PUSH1 0x4 MSTORE PUSH1 0x24 PUSH1 0x0 REVERT JUMPDEST PUSH32 0x4E487B7100000000000000000000000000000000000000000000000000000000 PUSH1 0x0 MSTORE PUSH1 0x32 PUSH1 0x4 MSTORE PUSH1 0x24 PUSH1 0x0 REVERT JUMPDEST PUSH1 0x0 DUP2 SWAP1 POP SWAP2 SWAP1 POP JUMP JUMPDEST PUSH1 0x0 DUP2 SWAP1 POP SWAP2 SWAP1 POP JUMP JUMPDEST PUSH1 0x0 DUP2 CALLDATALOAD PUSH2 0x164C DUP2 PUSH2 0x178B JUMP JUMPDEST DUP1 SWAP2 POP POP SWAP2 SWAP1 POP JUMP JUMPDEST PUSH1 0x0 DUP2 CALLDATALOAD PUSH2 0x1662 DUP2 PUSH2 0x17E7 JUMP JUMPDEST DUP1 SWAP2 POP POP SWAP2 SWAP1 POP JUMP JUMPDEST PUSH1 0x0 DUP1 REVERT JUMPDEST PUSH1 0x0 DUP1 REVERT JUMPDEST PUSH1 0x0 DUP1 REVERT JUMPDEST PUSH1 0x0 DUP1 REVERT JUMPDEST PUSH1 0x0 DUP1 REVERT JUMPDEST PUSH1 0x0 DUP2 PUSH1 0x0 SHL SWAP1 POP SWAP2 SWAP1 POP JUMP JUMPDEST PUSH1 0x0 DUP2 PUSH1 0xA0 SHL SWAP1 POP SWAP2 SWAP1 POP JUMP JUMPDEST PUSH32 0x3100000000000000000000000000000000000000000000000000000000000000 PUSH1 0x0 DUP3 ADD MSTORE POP JUMP JUMPDEST PUSH1 0x0 PUSH20 0xFFFFFFFFFFFFFFFFFFFFFFFFFFFFFFFFFFFFFFFF PUSH2 0x16E7 DUP5 PUSH2 0x1684 JUMP JUMPDEST SWAP4 POP DUP1 NOT DUP4 AND SWAP3 POP DUP1 DUP5 AND DUP4 OR SWAP2 POP POP SWAP3 SWAP2 POP POP JUMP JUMPDEST PUSH1 0x0 PUSH24 0xFFFFFFFF0000000000000000000000000000000000000000 PUSH2 0x1721 DUP5 PUSH2 0x1691 JUMP JUMPDEST SWAP4 POP DUP1 NOT DUP4 AND SWAP3 POP DUP1 DUP5 AND DUP4 OR SWAP2 POP POP SWAP3 SWAP2 POP POP JUMP JUMPDEST PUSH2 0x1740 DUP3 PUSH2 0x14B5 JUMP JUMPDEST PUSH2 0x1753 PUSH2 0x174C DUP3 PUSH2 0x162B JUMP JUMPDEST DUP4 SLOAD PUSH2 0x16C7 JUMP JUMPDEST DUP3 SSTORE POP POP POP JUMP JUMPDEST PUSH2 0x1764 DUP3 DUP3 PUSH2 0x150F JUMP JUMPDEST POP POP JUMP JUMPDEST PUSH2 0x1771 DUP3 PUSH2 0x14FD JUMP JUMPDEST PUSH2 0x1784 PUSH2 0x177D DUP3 PUSH2 0x1635 JUMP JUMPDEST DUP4 SLOAD PUSH2 0x16FD JUMP JUMPDEST DUP3 SSTORE POP POP POP JUMP JUMPDEST PUSH2 0x1794 DUP2 PUSH2 0x1453 JUMP JUMPDEST DUP2 EQ PUSH2 0x179F JUMPI PUSH1 0x0 DUP1 REVERT JUMPDEST POP JUMP JUMPDEST PUSH2 0x17AB DUP2 PUSH2 0x1465 JUMP JUMPDEST DUP2 EQ PUSH2 0x17B6 JUMPI PUSH1 0x0 DUP1 REVERT JUMPDEST POP JUMP JUMPDEST PUSH2 0x17C2 DUP2 PUSH2 0x1471 JUMP JUMPDEST DUP2 EQ PUSH2 0x17CD JUMPI PUSH1 0x0 DUP1 REVERT JUMPDEST POP JUMP JUMPDEST PUSH2 0x17D9 DUP2 PUSH2 0x149B JUMP JUMPDEST DUP2 EQ PUSH2 0x17E4 JUMPI PUSH1 0x0 DUP1 REVERT JUMPDEST POP JUMP JUMPDEST PUSH2 0x17F0 DUP2 PUSH2 0x14A5 JUMP JUMPDEST DUP2 EQ PUSH2 0x17FB JUMPI PUSH1 0x0 DUP1 REVERT JUMPDEST POP JUMP INVALID LOG2 PUSH5 0x6970667358 0x22 SLT KECCAK256 CREATE BLOCKHASH LOG2 0x5C RETURN ADDRESS CALLDATASIZE 0xC0 0x4D 0x4E 0xD2 ISZERO 0xC5 0xC2 0xD0 CALLVALUE 0xFC ORIGIN 0xD5 0xBF PUSH22 0xD9043A5608E7454AAA5C7964736F6C63430008070033 "
		},
		"gasEstimates": {
			"creation": {
				"codeDepositCost": "1239200",
				"executionCost": "1288",
				"totalCost": "1240488"
			},
			"external": {
				"XLA_addr()": "2559",
				"closed()": "2494",
				"complete()": "2610",
				"fundingLimit()": "2496",
				"fundingProgress()": "2451",
				"initContract(address)": "infinite",
				"members()": "infinite",
				"paybackProgress()": "2518",
				"rate()": "2452",
				"refundAddress()": "2560",
				"setFundingLimit(uint256)": "22544",
				"setMembers((address,uint32)[])": "infinite",
				"setRate(int256)": "22610",
				"setRefundAddress(address)": "24790",
				"splitPay()": "infinite",
				"total()": "2474"
			},
			"internal": {
				"isContract(address)": "infinite"
			}
		},
		"methodIdentifiers": {
			"XLA_addr()": "72f0f0a5",
			"closed()": "597e1fb5",
			"complete()": "522e1177",
			"fundingLimit()": "7fe6eee0",
			"fundingProgress()": "a678bb9e",
			"initContract(address)": "cf9d4afa",
			"members()": "bdd4d18d",
			"paybackProgress()": "9c3f4185",
			"rate()": "2c4e722e",
			"refundAddress()": "0cb61f6c",
			"setFundingLimit(uint256)": "0645544a",
			"setMembers((address,uint32)[])": "44080f42",
			"setRate(int256)": "2587eb4e",
			"setRefundAddress(address)": "15b75bea",
			"splitPay()": "ade42178",
			"total()": "2ddbd13a"
		}
	},
	"abi": [
		{
			"inputs": [],
			"name": "XLA_addr",
			"outputs": [
				{
					"internalType": "address",
					"name": "",
					"type": "address"
				}
			],
			"stateMutability": "view",
			"type": "function"
		},
		{
			"inputs": [],
			"name": "closed",
			"outputs": [
				{
					"internalType": "bool",
					"name": "",
					"type": "bool"
				}
			],
			"stateMutability": "view",
			"type": "function"
		},
		{
			"inputs": [],
			"name": "complete",
			"outputs": [
				{
					"internalType": "bool",
					"name": "",
					"type": "bool"
				}
			],
			"stateMutability": "view",
			"type": "function"
		},
		{
			"inputs": [],
			"name": "fundingLimit",
			"outputs": [
				{
					"internalType": "uint256",
					"name": "",
					"type": "uint256"
				}
			],
			"stateMutability": "view",
			"type": "function"
		},
		{
			"inputs": [],
			"name": "fundingProgress",
			"outputs": [
				{
					"internalType": "uint256",
					"name": "",
					"type": "uint256"
				}
			],
			"stateMutability": "view",
			"type": "function"
		},
		{
			"inputs": [
				{
					"internalType": "address",
					"name": "_xla",
					"type": "address"
				}
			],
			"name": "initContract",
			"outputs": [],
			"stateMutability": "nonpayable",
			"type": "function"
		},
		{
			"inputs": [],
			"name": "members",
			"outputs": [
				{
					"components": [
						{
							"internalType": "address",
							"name": "account",
							"type": "address"
						},
						{
							"internalType": "uint32",
							"name": "amount",
							"type": "uint32"
						}
					],
					"internalType": "struct LoanSplitter.Member[]",
					"name": "",
					"type": "tuple[]"
				}
			],
			"stateMutability": "view",
			"type": "function"
		},
		{
			"inputs": [],
			"name": "paybackProgress",
			"outputs": [
				{
					"internalType": "uint256",
					"name": "",
					"type": "uint256"
				}
			],
			"stateMutability": "view",
			"type": "function"
		},
		{
			"inputs": [],
			"name": "rate",
			"outputs": [
				{
					"internalType": "int256",
					"name": "",
					"type": "int256"
				}
			],
			"stateMutability": "view",
			"type": "function"
		},
		{
			"inputs": [],
			"name": "refundAddress",
			"outputs": [
				{
					"internalType": "address",
					"name": "",
					"type": "address"
				}
			],
			"stateMutability": "view",
			"type": "function"
		},
		{
			"inputs": [
				{
					"internalType": "uint256",
					"name": "l",
					"type": "uint256"
				}
			],
			"name": "setFundingLimit",
			"outputs": [],
			"stateMutability": "nonpayable",
			"type": "function"
		},
		{
			"inputs": [
				{
					"components": [
						{
							"internalType": "address",
							"name": "account",
							"type": "address"
						},
						{
							"internalType": "uint32",
							"name": "amount",
							"type": "uint32"
						}
					],
					"internalType": "struct LoanSplitter.Member[]",
					"name": "m",
					"type": "tuple[]"
				}
			],
			"name": "setMembers",
			"outputs": [],
			"stateMutability": "nonpayable",
			"type": "function"
		},
		{
			"inputs": [
				{
					"internalType": "int256",
					"name": "m",
					"type": "int256"
				}
			],
			"name": "setRate",
			"outputs": [],
			"stateMutability": "nonpayable",
			"type": "function"
		},
		{
			"inputs": [
				{
					"internalType": "address",
					"name": "a",
					"type": "address"
				}
			],
			"name": "setRefundAddress",
			"outputs": [],
			"stateMutability": "nonpayable",
			"type": "function"
		},
		{
			"inputs": [],
			"name": "splitPay",
			"outputs": [],
			"stateMutability": "payable",
			"type": "function"
		},
		{
			"inputs": [],
			"name": "total",
			"outputs": [
				{
					"internalType": "uint256",
					"name": "",
					"type": "uint256"
				}
			],
			"stateMutability": "view",
			"type": "function"
		}
	]
}