{
	"data": {
		"bytecode": {
			"linkReferences": {},
			"object": "608060405234801561001057600080fd5b506102cf806100206000396000f3fe608060405234801561001057600080fd5b506004361061004c5760003560e01c806308057902146100515780631338736f1461006f5780633158952e1461008b5780633a996f3014610095575b600080fd5b61005961009f565b6040516100669190610226565b60405180910390f35b610089600480360381019061008491906101ad565b61014e565b005b610093610152565b005b61009d610154565b005b60008073f8e81d47203a594245e36c48e151709f0c19fbe8905060003090508173ffffffffffffffffffffffffffffffffffffffff166370a08231826040518263ffffffff1660e01b81526004016100f7919061020b565b60206040518083038186803b15801561010f57600080fd5b505afa158015610123573d6000803e3d6000fd5b505050506040513d601f19601f820116820180604052508101906101479190610180565b9250505090565b5050565b565b565b60008135905061016581610282565b92915050565b60008151905061017a81610282565b92915050565b6000602082840312156101965761019561027d565b5b60006101a48482850161016b565b91505092915050565b600080604083850312156101c4576101c361027d565b5b60006101d285828601610156565b92505060206101e385828601610156565b9150509250929050565b6101f681610241565b82525050565b61020581610273565b82525050565b600060208201905061022060008301846101ed565b92915050565b600060208201905061023b60008301846101fc565b92915050565b600061024c82610253565b9050919050565b600073ffffffffffffffffffffffffffffffffffffffff82169050919050565b6000819050919050565b600080fd5b61028b81610273565b811461029657600080fd5b5056fea2646970667358221220b533634c76e68cfbc904490410a182ce5ce566400c57e80eade77167d915aa9064736f6c63430008070033",
			"opcodes": "PUSH1 0x80 PUSH1 0x40 MSTORE CALLVALUE DUP1 ISZERO PUSH2 0x10 JUMPI PUSH1 0x0 DUP1 REVERT JUMPDEST POP PUSH2 0x2CF DUP1 PUSH2 0x20 PUSH1 0x0 CODECOPY PUSH1 0x0 RETURN INVALID PUSH1 0x80 PUSH1 0x40 MSTORE CALLVALUE DUP1 ISZERO PUSH2 0x10 JUMPI PUSH1 0x0 DUP1 REVERT JUMPDEST POP PUSH1 0x4 CALLDATASIZE LT PUSH2 0x4C JUMPI PUSH1 0x0 CALLDATALOAD PUSH1 0xE0 SHR DUP1 PUSH4 0x8057902 EQ PUSH2 0x51 JUMPI DUP1 PUSH4 0x1338736F EQ PUSH2 0x6F JUMPI DUP1 PUSH4 0x3158952E EQ PUSH2 0x8B JUMPI DUP1 PUSH4 0x3A996F30 EQ PUSH2 0x95 JUMPI JUMPDEST PUSH1 0x0 DUP1 REVERT JUMPDEST PUSH2 0x59 PUSH2 0x9F JUMP JUMPDEST PUSH1 0x40 MLOAD PUSH2 0x66 SWAP2 SWAP1 PUSH2 0x226 JUMP JUMPDEST PUSH1 0x40 MLOAD DUP1 SWAP2 SUB SWAP1 RETURN JUMPDEST PUSH2 0x89 PUSH1 0x4 DUP1 CALLDATASIZE SUB DUP2 ADD SWAP1 PUSH2 0x84 SWAP2 SWAP1 PUSH2 0x1AD JUMP JUMPDEST PUSH2 0x14E JUMP JUMPDEST STOP JUMPDEST PUSH2 0x93 PUSH2 0x152 JUMP JUMPDEST STOP JUMPDEST PUSH2 0x9D PUSH2 0x154 JUMP JUMPDEST STOP JUMPDEST PUSH1 0x0 DUP1 PUSH20 0xF8E81D47203A594245E36C48E151709F0C19FBE8 SWAP1 POP PUSH1 0x0 ADDRESS SWAP1 POP DUP2 PUSH20 0xFFFFFFFFFFFFFFFFFFFFFFFFFFFFFFFFFFFFFFFF AND PUSH4 0x70A08231 DUP3 PUSH1 0x40 MLOAD DUP3 PUSH4 0xFFFFFFFF AND PUSH1 0xE0 SHL DUP2 MSTORE PUSH1 0x4 ADD PUSH2 0xF7 SWAP2 SWAP1 PUSH2 0x20B JUMP JUMPDEST PUSH1 0x20 PUSH1 0x40 MLOAD DUP1 DUP4 SUB DUP2 DUP7 DUP1 EXTCODESIZE ISZERO DUP1 ISZERO PUSH2 0x10F JUMPI PUSH1 0x0 DUP1 REVERT JUMPDEST POP GAS STATICCALL ISZERO DUP1 ISZERO PUSH2 0x123 JUMPI RETURNDATASIZE PUSH1 0x0 DUP1 RETURNDATACOPY RETURNDATASIZE PUSH1 0x0 REVERT JUMPDEST POP POP POP POP PUSH1 0x40 MLOAD RETURNDATASIZE PUSH1 0x1F NOT PUSH1 0x1F DUP3 ADD AND DUP3 ADD DUP1 PUSH1 0x40 MSTORE POP DUP2 ADD SWAP1 PUSH2 0x147 SWAP2 SWAP1 PUSH2 0x180 JUMP JUMPDEST SWAP3 POP POP POP SWAP1 JUMP JUMPDEST POP POP JUMP JUMPDEST JUMP JUMPDEST JUMP JUMPDEST PUSH1 0x0 DUP2 CALLDATALOAD SWAP1 POP PUSH2 0x165 DUP2 PUSH2 0x282 JUMP JUMPDEST SWAP3 SWAP2 POP POP JUMP JUMPDEST PUSH1 0x0 DUP2 MLOAD SWAP1 POP PUSH2 0x17A DUP2 PUSH2 0x282 JUMP JUMPDEST SWAP3 SWAP2 POP POP JUMP JUMPDEST PUSH1 0x0 PUSH1 0x20 DUP3 DUP5 SUB SLT ISZERO PUSH2 0x196 JUMPI PUSH2 0x195 PUSH2 0x27D JUMP JUMPDEST JUMPDEST PUSH1 0x0 PUSH2 0x1A4 DUP5 DUP3 DUP6 ADD PUSH2 0x16B JUMP JUMPDEST SWAP2 POP POP SWAP3 SWAP2 POP POP JUMP JUMPDEST PUSH1 0x0 DUP1 PUSH1 0x40 DUP4 DUP6 SUB SLT ISZERO PUSH2 0x1C4 JUMPI PUSH2 0x1C3 PUSH2 0x27D JUMP JUMPDEST JUMPDEST PUSH1 0x0 PUSH2 0x1D2 DUP6 DUP3 DUP7 ADD PUSH2 0x156 JUMP JUMPDEST SWAP3 POP POP PUSH1 0x20 PUSH2 0x1E3 DUP6 DUP3 DUP7 ADD PUSH2 0x156 JUMP JUMPDEST SWAP2 POP POP SWAP3 POP SWAP3 SWAP1 POP JUMP JUMPDEST PUSH2 0x1F6 DUP2 PUSH2 0x241 JUMP JUMPDEST DUP3 MSTORE POP POP JUMP JUMPDEST PUSH2 0x205 DUP2 PUSH2 0x273 JUMP JUMPDEST DUP3 MSTORE POP POP JUMP JUMPDEST PUSH1 0x0 PUSH1 0x20 DUP3 ADD SWAP1 POP PUSH2 0x220 PUSH1 0x0 DUP4 ADD DUP5 PUSH2 0x1ED JUMP JUMPDEST SWAP3 SWAP2 POP POP JUMP JUMPDEST PUSH1 0x0 PUSH1 0x20 DUP3 ADD SWAP1 POP PUSH2 0x23B PUSH1 0x0 DUP4 ADD DUP5 PUSH2 0x1FC JUMP JUMPDEST SWAP3 SWAP2 POP POP JUMP JUMPDEST PUSH1 0x0 PUSH2 0x24C DUP3 PUSH2 0x253 JUMP JUMPDEST SWAP1 POP SWAP2 SWAP1 POP JUMP JUMPDEST PUSH1 0x0 PUSH20 0xFFFFFFFFFFFFFFFFFFFFFFFFFFFFFFFFFFFFFFFF DUP3 AND SWAP1 POP SWAP2 SWAP1 POP JUMP JUMPDEST PUSH1 0x0 DUP2 SWAP1 POP SWAP2 SWAP1 POP JUMP JUMPDEST PUSH1 0x0 DUP1 REVERT JUMPDEST PUSH2 0x28B DUP2 PUSH2 0x273 JUMP JUMPDEST DUP2 EQ PUSH2 0x296 JUMPI PUSH1 0x0 DUP1 REVERT JUMPDEST POP JUMP INVALID LOG2 PUSH5 0x6970667358 0x22 SLT KECCAK256 0xB5 CALLER PUSH4 0x4C76E68C 0xFB 0xC9 DIV 0x49 DIV LT LOG1 DUP3 0xCE 0x5C 0xE5 PUSH7 0x400C57E80EADE7 PUSH18 0x67D915AA9064736F6C634300080700330000 "
		},
		"gasEstimates": {
			"creation": {
				"codeDepositCost": "143800",
				"executionCost": "190",
				"totalCost": "143990"
			},
			"external": {
				"CheckAvailableClaim()": "infinite",
				"Claim()": "166",
				"lock(uint256,uint256)": "infinite",
				"sendVested()": "188"
			}
		},
		"methodIdentifiers": {
			"CheckAvailableClaim()": "08057902",
			"Claim()": "3158952e",
			"lock(uint256,uint256)": "1338736f",
			"sendVested()": "3a996f30"
		}
	},
	"abi": [
		{
			"inputs": [],
			"name": "CheckAvailableClaim",
			"outputs": [
				{
					"internalType": "uint256",
					"name": "",
					"type": "uint256"
				}
			],
			"stateMutability": "view",
			"type": "function"
		},
		{
			"inputs": [],
			"name": "Claim",
			"outputs": [],
			"stateMutability": "nonpayable",
			"type": "function"
		},
		{
			"inputs": [
				{
					"internalType": "uint256",
					"name": "id",
					"type": "uint256"
				},
				{
					"internalType": "uint256",
					"name": "tokens",
					"type": "uint256"
				}
			],
			"name": "lock",
			"outputs": [],
			"stateMutability": "nonpayable",
			"type": "function"
		},
		{
			"inputs": [],
			"name": "sendVested",
			"outputs": [],
			"stateMutability": "nonpayable",
			"type": "function"
		}
	]
}